{
  "_format": "hh-sol-artifact-1",
  "contractName": "LoanRequest",
  "sourceName": "contracts/Loan.sol",
  "abi": [
    {
      "inputs": [
        {
          "internalType": "string",
          "name": "_loanPurpose",
          "type": "string"
        },
        {
          "internalType": "uint256",
          "name": "_loanAmount",
          "type": "uint256"
        },
        {
          "internalType": "uint256",
          "name": "_payoffAmount",
          "type": "uint256"
        },
        {
          "internalType": "uint256",
          "name": "_loanDuration",
          "type": "uint256"
        }
      ],
      "stateMutability": "nonpayable",
      "type": "constructor"
    },
    {
      "anonymous": false,
      "inputs": [
        {
          "indexed": false,
          "internalType": "address",
          "name": "loan",
          "type": "address"
        }
      ],
      "name": "LoanRequestAccepted",
      "type": "event"
    },
    {
      "inputs": [],
      "name": "borrower",
      "outputs": [
        {
          "internalType": "address",
          "name": "",
          "type": "address"
        }
      ],
      "stateMutability": "view",
      "type": "function"
    },
    {
      "inputs": [],
      "name": "lendMatic",
      "outputs": [],
      "stateMutability": "payable",
      "type": "function"
    },
    {
      "inputs": [],
      "name": "loan",
      "outputs": [
        {
          "internalType": "contract Loan",
          "name": "",
          "type": "address"
        }
      ],
      "stateMutability": "view",
      "type": "function"
    },
    {
      "inputs": [],
      "name": "loanAmount",
      "outputs": [
        {
          "internalType": "uint256",
          "name": "",
          "type": "uint256"
        }
      ],
      "stateMutability": "view",
      "type": "function"
    },
    {
      "inputs": [],
      "name": "loanDuration",
      "outputs": [
        {
          "internalType": "uint256",
          "name": "",
          "type": "uint256"
        }
      ],
      "stateMutability": "view",
      "type": "function"
    },
    {
      "inputs": [],
      "name": "loanPurpose",
      "outputs": [
        {
          "internalType": "string",
          "name": "",
          "type": "string"
        }
      ],
      "stateMutability": "view",
      "type": "function"
    },
    {
      "inputs": [],
      "name": "payoffAmount",
      "outputs": [
        {
          "internalType": "uint256",
          "name": "",
          "type": "uint256"
        }
      ],
      "stateMutability": "view",
      "type": "function"
    }
  ],
  "bytecode": "0x60806040523480156200001157600080fd5b50604051620012cd380380620012cd8339818101604052810190620000379190620001e8565b83600190805190602001906200004f929190620000af565b50826002819055508160038190555080600481905550336000806101000a81548173ffffffffffffffffffffffffffffffffffffffff021916908373ffffffffffffffffffffffffffffffffffffffff16021790555050505050620003c2565b828054620000bd9062000314565b90600052602060002090601f016020900481019282620000e157600085556200012d565b82601f10620000fc57805160ff19168380011785556200012d565b828001600101855582156200012d579182015b828111156200012c5782518255916020019190600101906200010f565b5b5090506200013c919062000140565b5090565b5b808211156200015b57600081600090555060010162000141565b5090565b6000620001766200017084620002a1565b6200026d565b9050828152602081018484840111156200018f57600080fd5b6200019c848285620002de565b509392505050565b600082601f830112620001b657600080fd5b8151620001c88482602086016200015f565b91505092915050565b600081519050620001e281620003a8565b92915050565b60008060008060808587031215620001ff57600080fd5b600085015167ffffffffffffffff8111156200021a57600080fd5b6200022887828801620001a4565b94505060206200023b87828801620001d1565b93505060406200024e87828801620001d1565b92505060606200026187828801620001d1565b91505092959194509250565b6000604051905081810181811067ffffffffffffffff8211171562000297576200029662000379565b5b8060405250919050565b600067ffffffffffffffff821115620002bf57620002be62000379565b5b601f19601f8301169050602081019050919050565b6000819050919050565b60005b83811015620002fe578082015181840152602081019050620002e1565b838111156200030e576000848401525b50505050565b600060028204905060018216806200032d57607f821691505b602082108114156200034457620003436200034a565b5b50919050565b7f4e487b7100000000000000000000000000000000000000000000000000000000600052602260045260246000fd5b7f4e487b7100000000000000000000000000000000000000000000000000000000600052604160045260246000fd5b620003b381620002d4565b8114620003bf57600080fd5b50565b610efb80620003d26000396000f3fe6080604052600436106100705760003560e01c80639d585f7f1161004e5780639d585f7f146100d5578063be1abba514610100578063d285b7b41461012b578063f5521bf11461015657610070565b8063021260ab146100755780637df1f1b91461007f57806397c5b4a4146100aa575b600080fd5b61007d610181565b005b34801561008b57600080fd5b506100946102f1565b6040516100a1919061044f565b60405180910390f35b3480156100b657600080fd5b506100bf610315565b6040516100cc91906104ca565b60405180910390f35b3480156100e157600080fd5b506100ea6103a3565b6040516100f791906104ec565b60405180910390f35b34801561010c57600080fd5b506101156103a9565b60405161012291906104ec565b60405180910390f35b34801561013757600080fd5b506101406103af565b60405161014d91906104af565b60405180910390f35b34801561016257600080fd5b5061016b6103d5565b60405161017891906104ec565b60405180910390f35b600254341461018f57600080fd5b3360008054906101000a900473ffffffffffffffffffffffffffffffffffffffff166003546004546040516101c3906103db565b6101d0949392919061046a565b604051809103906000f0801580156101ec573d6000803e3d6000fd5b50600560006101000a81548173ffffffffffffffffffffffffffffffffffffffff021916908373ffffffffffffffffffffffffffffffffffffffff16021790555060008054906101000a900473ffffffffffffffffffffffffffffffffffffffff1673ffffffffffffffffffffffffffffffffffffffff166108fc6002549081150290604051600060405180830381858888f19350505050158015610295573d6000803e3d6000fd5b507f9f677f64e89085ceeb9764ab56960049bf27d6c283ce7a1fd757cac5648bb919600560009054906101000a900473ffffffffffffffffffffffffffffffffffffffff166040516102e7919061044f565b60405180910390a1565b60008054906101000a900473ffffffffffffffffffffffffffffffffffffffff1681565b60018054610322906105b6565b80601f016020809104026020016040519081016040528092919081815260200182805461034e906105b6565b801561039b5780601f106103705761010080835404028352916020019161039b565b820191906000526020600020905b81548152906001019060200180831161037e57829003601f168201915b505050505081565b60025481565b60035481565b600560009054906101000a900473ffffffffffffffffffffffffffffffffffffffff1681565b60045481565b61089d806200062983390190565b6103f281610523565b82525050565b6104018161055f565b82525050565b600061041282610507565b61041c8185610512565b935061042c818560208601610583565b61043581610617565b840191505092915050565b61044981610555565b82525050565b600060208201905061046460008301846103e9565b92915050565b600060808201905061047f60008301876103e9565b61048c60208301866103e9565b6104996040830185610440565b6104a66060830184610440565b95945050505050565b60006020820190506104c460008301846103f8565b92915050565b600060208201905081810360008301526104e48184610407565b905092915050565b60006020820190506105016000830184610440565b92915050565b600081519050919050565b600082825260208201905092915050565b600061052e82610535565b9050919050565b600073ffffffffffffffffffffffffffffffffffffffff82169050919050565b6000819050919050565b600061056a82610571565b9050919050565b600061057c82610535565b9050919050565b60005b838110156105a1578082015181840152602081019050610586565b838111156105b0576000848401525b50505050565b600060028204905060018216806105ce57607f821691505b602082108114156105e2576105e16105e8565b5b50919050565b7f4e487b7100000000000000000000000000000000000000000000000000000000600052602260045260246000fd5b6000601f19601f830116905091905056fe608060405234801561001057600080fd5b5060405161089d38038061089d8339818101604052810190610032919061010f565b836000806101000a81548173ffffffffffffffffffffffffffffffffffffffff021916908373ffffffffffffffffffffffffffffffffffffffff16021790555082600160006101000a81548173ffffffffffffffffffffffffffffffffffffffff021916908373ffffffffffffffffffffffffffffffffffffffff160217905550816002819055508060048190555042600581905550600454426100d69190610172565b60038190555050505050610261565b6000815190506100f481610233565b92915050565b6000815190506101098161024a565b92915050565b6000806000806080858703121561012557600080fd5b6000610133878288016100e5565b9450506020610144878288016100e5565b9350506040610155878288016100fa565b9250506060610166878288016100fa565b91505092959194509250565b600061017d826101fa565b9150610188836101fa565b9250827fffffffffffffffffffffffffffffffffffffffffffffffffffffffffffffffff038211156101bd576101bc610204565b5b828201905092915050565b60006101d3826101da565b9050919050565b600073ffffffffffffffffffffffffffffffffffffffff82169050919050565b6000819050919050565b7f4e487b7100000000000000000000000000000000000000000000000000000000600052601160045260246000fd5b61023c816101c8565b811461024757600080fd5b50565b610253816101fa565b811461025e57600080fd5b50565b61062d806102706000396000f3fe6080604052600436106100915760003560e01c8063b7aa199f11610059578063b7aa199f14610129578063bcead63e14610152578063be1abba51461017d578063c406b877146101a8578063f5521bf1146101d357610091565b806338e2a164146100965780634bb278f3146100b2578063724de084146100c9578063786716fe146100d35780637df1f1b9146100fe575b600080fd5b6100b060048036038101906100ab9190610446565b6101fe565b005b3480156100be57600080fd5b506100c7610282565b005b6100d16102bb565b005b3480156100df57600080fd5b506100e861037b565b6040516100f59190610541565b60405180910390f35b34801561010a57600080fd5b50610113610381565b6040516101209190610506565b60405180910390f35b34801561013557600080fd5b50610150600480360381019061014b9190610446565b6103a7565b005b34801561015e57600080fd5b506101676103fb565b6040516101749190610506565b60405180910390f35b34801561018957600080fd5b5061019261041f565b60405161019f9190610541565b60405180910390f35b3480156101b457600080fd5b506101bd610425565b6040516101ca9190610541565b60405180910390f35b3480156101df57600080fd5b506101e861042b565b6040516101f59190610541565b60405180910390f35b60035442111561020d57600080fd5b60008054906101000a900473ffffffffffffffffffffffffffffffffffffffff1673ffffffffffffffffffffffffffffffffffffffff166108fc349081150290604051600060405180830381858888f19350505050158015610273573d6000803e3d6000fd5b5061027e82826103a7565b5050565b60008054906101000a900473ffffffffffffffffffffffffffffffffffffffff1673ffffffffffffffffffffffffffffffffffffffff16ff5b60025434146102ff576040517f08c379a00000000000000000000000000000000000000000000000000000000081526004016102f690610521565b60405180910390fd5b60008054906101000a900473ffffffffffffffffffffffffffffffffffffffff1673ffffffffffffffffffffffffffffffffffffffff166108fc349081150290604051600060405180830381858888f19350505050158015610365573d6000803e3d6000fd5b506103716000806103a7565b610379610282565b565b60035481565b600160009054906101000a900473ffffffffffffffffffffffffffffffffffffffff1681565b8160028190555080600481905550426005819055507f6166c6346a4d80303d5c3ee0bfaeb8e4f6a3acbd1b56666cb86bf307bfe8edb98282426040516103ef9392919061055c565b60405180910390a15050565b60008054906101000a900473ffffffffffffffffffffffffffffffffffffffff1681565b60025481565b60055481565b60045481565b600081359050610440816105e0565b92915050565b6000806040838503121561045957600080fd5b600061046785828601610431565b925050602061047885828601610431565b9150509250929050565b61048b816105a4565b82525050565b600061049e602383610593565b91507f506179206f666620616d6f756e742076616c7565206973206e6f7420636f727260008301527f65637400000000000000000000000000000000000000000000000000000000006020830152604082019050919050565b610500816105d6565b82525050565b600060208201905061051b6000830184610482565b92915050565b6000602082019050818103600083015261053a81610491565b9050919050565b600060208201905061055660008301846104f7565b92915050565b600060608201905061057160008301866104f7565b61057e60208301856104f7565b61058b60408301846104f7565b949350505050565b600082825260208201905092915050565b60006105af826105b6565b9050919050565b600073ffffffffffffffffffffffffffffffffffffffff82169050919050565b6000819050919050565b6105e9816105d6565b81146105f457600080fd5b5056fea26469706673582212202a77e589daf33e75adfb5be72ad741f9ed3050d9d566ccad66a4a6a249d444e464736f6c63430008000033a26469706673582212202891a1fde9fd5219ac3fc0d4b558d6a1b1b8246fd6bc6bae9dd5c32231d085a764736f6c63430008000033",
  "linkReferences": {},
  "deployedLinkReferences": {}
}