{
  "_format": "hh-sol-artifact-1",
  "contractName": "Loan",
  "sourceName": "contracts/Loan.sol",
  "abi": [
    {
      "inputs": [
        {
          "internalType": "address",
          "name": "_lender",
          "type": "address"
        },
        {
          "internalType": "address",
          "name": "_borrower",
          "type": "address"
        },
        {
          "internalType": "uint256",
          "name": "_payoffAmount",
          "type": "uint256"
        },
        {
          "internalType": "uint256",
          "name": "_loanDuration",
          "type": "uint256"
        }
      ],
      "stateMutability": "nonpayable",
      "type": "constructor"
    },
    {
      "anonymous": false,
      "inputs": [
        {
          "indexed": false,
          "internalType": "uint256",
          "name": "",
          "type": "uint256"
        },
        {
          "indexed": false,
          "internalType": "uint256",
          "name": "",
          "type": "uint256"
        },
        {
          "indexed": false,
          "internalType": "uint256",
          "name": "",
          "type": "uint256"
        }
      ],
      "name": "LoanPaid",
      "type": "event"
    },
    {
      "inputs": [],
      "name": "borrower",
      "outputs": [
        {
          "internalType": "address",
          "name": "",
          "type": "address"
        }
      ],
      "stateMutability": "view",
      "type": "function"
    },
    {
      "inputs": [],
      "name": "dueDate",
      "outputs": [
        {
          "internalType": "uint256",
          "name": "",
          "type": "uint256"
        }
      ],
      "stateMutability": "view",
      "type": "function"
    },
    {
      "inputs": [],
      "name": "finalize",
      "outputs": [],
      "stateMutability": "nonpayable",
      "type": "function"
    },
    {
      "inputs": [],
      "name": "lender",
      "outputs": [
        {
          "internalType": "address",
          "name": "",
          "type": "address"
        }
      ],
      "stateMutability": "view",
      "type": "function"
    },
    {
      "inputs": [],
      "name": "loanDuration",
      "outputs": [
        {
          "internalType": "uint256",
          "name": "",
          "type": "uint256"
        }
      ],
      "stateMutability": "view",
      "type": "function"
    },
    {
      "inputs": [
        {
          "internalType": "uint256",
          "name": "_payoffAmount",
          "type": "uint256"
        },
        {
          "internalType": "uint256",
          "name": "_loanDuration",
          "type": "uint256"
        }
      ],
      "name": "partPayment",
      "outputs": [],
      "stateMutability": "payable",
      "type": "function"
    },
    {
      "inputs": [],
      "name": "payoffAmount",
      "outputs": [
        {
          "internalType": "uint256",
          "name": "",
          "type": "uint256"
        }
      ],
      "stateMutability": "view",
      "type": "function"
    },
    {
      "inputs": [],
      "name": "preClosure",
      "outputs": [],
      "stateMutability": "payable",
      "type": "function"
    },
    {
      "inputs": [
        {
          "internalType": "uint256",
          "name": "_payoffAmount",
          "type": "uint256"
        },
        {
          "internalType": "uint256",
          "name": "_loanDuration",
          "type": "uint256"
        }
      ],
      "name": "updateLoan",
      "outputs": [],
      "stateMutability": "nonpayable",
      "type": "function"
    },
    {
      "inputs": [],
      "name": "updatedDate",
      "outputs": [
        {
          "internalType": "uint256",
          "name": "",
          "type": "uint256"
        }
      ],
      "stateMutability": "view",
      "type": "function"
    }
  ],
  "bytecode": "0x608060405234801561001057600080fd5b5060405161089d38038061089d8339818101604052810190610032919061010f565b836000806101000a81548173ffffffffffffffffffffffffffffffffffffffff021916908373ffffffffffffffffffffffffffffffffffffffff16021790555082600160006101000a81548173ffffffffffffffffffffffffffffffffffffffff021916908373ffffffffffffffffffffffffffffffffffffffff160217905550816002819055508060048190555042600581905550600454426100d69190610172565b60038190555050505050610261565b6000815190506100f481610233565b92915050565b6000815190506101098161024a565b92915050565b6000806000806080858703121561012557600080fd5b6000610133878288016100e5565b9450506020610144878288016100e5565b9350506040610155878288016100fa565b9250506060610166878288016100fa565b91505092959194509250565b600061017d826101fa565b9150610188836101fa565b9250827fffffffffffffffffffffffffffffffffffffffffffffffffffffffffffffffff038211156101bd576101bc610204565b5b828201905092915050565b60006101d3826101da565b9050919050565b600073ffffffffffffffffffffffffffffffffffffffff82169050919050565b6000819050919050565b7f4e487b7100000000000000000000000000000000000000000000000000000000600052601160045260246000fd5b61023c816101c8565b811461024757600080fd5b50565b610253816101fa565b811461025e57600080fd5b50565b61062d806102706000396000f3fe6080604052600436106100915760003560e01c8063b7aa199f11610059578063b7aa199f14610129578063bcead63e14610152578063be1abba51461017d578063c406b877146101a8578063f5521bf1146101d357610091565b806338e2a164146100965780634bb278f3146100b2578063724de084146100c9578063786716fe146100d35780637df1f1b9146100fe575b600080fd5b6100b060048036038101906100ab9190610446565b6101fe565b005b3480156100be57600080fd5b506100c7610282565b005b6100d16102bb565b005b3480156100df57600080fd5b506100e861037b565b6040516100f59190610541565b60405180910390f35b34801561010a57600080fd5b50610113610381565b6040516101209190610506565b60405180910390f35b34801561013557600080fd5b50610150600480360381019061014b9190610446565b6103a7565b005b34801561015e57600080fd5b506101676103fb565b6040516101749190610506565b60405180910390f35b34801561018957600080fd5b5061019261041f565b60405161019f9190610541565b60405180910390f35b3480156101b457600080fd5b506101bd610425565b6040516101ca9190610541565b60405180910390f35b3480156101df57600080fd5b506101e861042b565b6040516101f59190610541565b60405180910390f35b60035442111561020d57600080fd5b60008054906101000a900473ffffffffffffffffffffffffffffffffffffffff1673ffffffffffffffffffffffffffffffffffffffff166108fc349081150290604051600060405180830381858888f19350505050158015610273573d6000803e3d6000fd5b5061027e82826103a7565b5050565b60008054906101000a900473ffffffffffffffffffffffffffffffffffffffff1673ffffffffffffffffffffffffffffffffffffffff16ff5b60025434146102ff576040517f08c379a00000000000000000000000000000000000000000000000000000000081526004016102f690610521565b60405180910390fd5b60008054906101000a900473ffffffffffffffffffffffffffffffffffffffff1673ffffffffffffffffffffffffffffffffffffffff166108fc349081150290604051600060405180830381858888f19350505050158015610365573d6000803e3d6000fd5b506103716000806103a7565b610379610282565b565b60035481565b600160009054906101000a900473ffffffffffffffffffffffffffffffffffffffff1681565b8160028190555080600481905550426005819055507f6166c6346a4d80303d5c3ee0bfaeb8e4f6a3acbd1b56666cb86bf307bfe8edb98282426040516103ef9392919061055c565b60405180910390a15050565b60008054906101000a900473ffffffffffffffffffffffffffffffffffffffff1681565b60025481565b60055481565b60045481565b600081359050610440816105e0565b92915050565b6000806040838503121561045957600080fd5b600061046785828601610431565b925050602061047885828601610431565b9150509250929050565b61048b816105a4565b82525050565b600061049e602383610593565b91507f506179206f666620616d6f756e742076616c7565206973206e6f7420636f727260008301527f65637400000000000000000000000000000000000000000000000000000000006020830152604082019050919050565b610500816105d6565b82525050565b600060208201905061051b6000830184610482565b92915050565b6000602082019050818103600083015261053a81610491565b9050919050565b600060208201905061055660008301846104f7565b92915050565b600060608201905061057160008301866104f7565b61057e60208301856104f7565b61058b60408301846104f7565b949350505050565b600082825260208201905092915050565b60006105af826105b6565b9050919050565b600073ffffffffffffffffffffffffffffffffffffffff82169050919050565b6000819050919050565b6105e9816105d6565b81146105f457600080fd5b5056fea26469706673582212202a77e589daf33e75adfb5be72ad741f9ed3050d9d566ccad66a4a6a249d444e464736f6c63430008000033",
  "linkReferences": {},
  "deployedLinkReferences": {}
}