{
  "_format": "hh-sol-artifact-1",
  "contractName": "LoanRequest",
  "sourceName": "contracts/Loan.sol",
  "abi": [
    {
      "inputs": [
        {
          "internalType": "string",
          "name": "_loanPurpose",
          "type": "string"
        },
        {
          "internalType": "uint256",
          "name": "_loanAmount",
          "type": "uint256"
        },
        {
          "internalType": "uint256",
          "name": "_loanDuration",
          "type": "uint256"
        }
      ],
      "stateMutability": "nonpayable",
      "type": "constructor"
    },
    {
      "anonymous": false,
      "inputs": [
        {
          "indexed": false,
          "internalType": "address",
          "name": "loan",
          "type": "address"
        }
      ],
      "name": "LoanRequestAccepted",
      "type": "event"
    },
    {
      "inputs": [],
      "name": "accepted",
      "outputs": [
        {
          "internalType": "bool",
          "name": "",
          "type": "bool"
        }
      ],
      "stateMutability": "view",
      "type": "function"
    },
    {
      "inputs": [],
      "name": "borrower",
      "outputs": [
        {
          "internalType": "address",
          "name": "",
          "type": "address"
        }
      ],
      "stateMutability": "view",
      "type": "function"
    },
    {
      "inputs": [],
      "name": "lendMatic",
      "outputs": [],
      "stateMutability": "payable",
      "type": "function"
    },
    {
      "inputs": [],
      "name": "loan",
      "outputs": [
        {
          "internalType": "contract Loan",
          "name": "",
          "type": "address"
        }
      ],
      "stateMutability": "view",
      "type": "function"
    },
    {
      "inputs": [],
      "name": "loanAmount",
      "outputs": [
        {
          "internalType": "uint256",
          "name": "",
          "type": "uint256"
        }
      ],
      "stateMutability": "view",
      "type": "function"
    },
    {
      "inputs": [],
      "name": "loanDuration",
      "outputs": [
        {
          "internalType": "uint256",
          "name": "",
          "type": "uint256"
        }
      ],
      "stateMutability": "view",
      "type": "function"
    },
    {
      "inputs": [],
      "name": "loanPurpose",
      "outputs": [
        {
          "internalType": "string",
          "name": "",
          "type": "string"
        }
      ],
      "stateMutability": "view",
      "type": "function"
    }
  ],
  "bytecode": "0x608060405234801561001057600080fd5b50604051610ab7380380610ab783398101604081905261002f916100fd565b8251610042906001906020860190610064565b5060029190915560035550600080546001600160a01b03191633179055610221565b828054610070906101d0565b90600052602060002090601f01602090048101928261009257600085556100d8565b82601f106100ab57805160ff19168380011785556100d8565b828001600101855582156100d8579182015b828111156100d85782518255916020019190600101906100bd565b506100e49291506100e8565b5090565b5b808211156100e457600081556001016100e9565b600080600060608486031215610111578283fd5b83516001600160401b0380821115610127578485fd5b818601915086601f83011261013a578485fd5b81518181111561014c5761014c61020b565b6040516020601f8301601f19168201810184811183821017156101715761017161020b565b60405282825284830181018a1015610187578788fd5b8793505b828410156101a8578484018101518285018201529283019261018b565b828411156101b857878184840101525b88015160409098015190999798509695505050505050565b6002810460018216806101e457607f821691505b6020821081141561020557634e487b7160e01b600052602260045260246000fd5b50919050565b634e487b7160e01b600052604160045260246000fd5b610887806102306000396000f3fe6080604052600436106100705760003560e01c806397c5b4a41161004e57806397c5b4a4146100cc5780639d585f7f146100ee578063d285b7b414610110578063f5521bf11461012557610070565b8063021260ab1461007557806367fe5a0c1461007f5780637df1f1b9146100aa575b600080fd5b61007d61013a565b005b34801561008b57600080fd5b50610094610262565b6040516100a19190610372565b60405180910390f35b3480156100b657600080fd5b506100bf61026b565b6040516100a19190610335565b3480156100d857600080fd5b506100e161027a565b6040516100a1919061037d565b3480156100fa57600080fd5b50610103610308565b6040516100a19190610413565b34801561011c57600080fd5b506100bf61030e565b34801561013157600080fd5b50610103610322565b60025434146101645760405162461bcd60e51b815260040161015b906103d0565b60405180910390fd5b60005460025460035460405133936001600160a01b031692919061018790610328565b6101949493929190610349565b604051809103906000f0801580156101b0573d6000803e3d6000fd5b5060048054610100600160a81b0319166101006001600160a01b03938416021790556000805460025460405191909316926108fc81150292909190818181858888f19350505050158015610208573d6000803e3d6000fd5b5060048054600160ff1990911617908190556040517f9f677f64e89085ceeb9764ab56960049bf27d6c283ce7a1fd757cac5648bb91991610258916101009091046001600160a01b031690610335565b60405180910390a1565b60045460ff1681565b6000546001600160a01b031681565b600180546102879061041c565b80601f01602080910402602001604051908101604052809291908181526020018280546102b39061041c565b80156103005780601f106102d557610100808354040283529160200191610300565b820191906000526020600020905b8154815290600101906020018083116102e357829003601f168201915b505050505081565b60025481565b60045461010090046001600160a01b031681565b60035481565b6103fa8061045883390190565b6001600160a01b0391909116815260200190565b6001600160a01b0394851681529290931660208301526040820152606081019190915260800190565b901515815260200190565b6000602080835283518082850152825b818110156103a95785810183015185820160400152820161038d565b818111156103ba5783604083870101525b50601f01601f1916929092016040019392505050565b60208082526023908201527f506179206f666620616d6f756e742076616c7565206973206e6f7420636f72726040820152621958dd60ea1b606082015260800190565b90815260200190565b60028104600182168061043057607f821691505b6020821081141561045157634e487b7160e01b600052602260045260246000fd5b5091905056fe608060405234801561001057600080fd5b506040516103fa3803806103fa83398101604081905261002f91610097565b600080546001600160a01b038087166001600160a01b0319928316179092556001805492861692909116919091179055600282905561006e81426100d9565b600355506100fd92505050565b80516001600160a01b038116811461009257600080fd5b919050565b600080600080608085870312156100ac578384fd5b6100b58561007b565b93506100c36020860161007b565b6040860151606090960151949790965092505050565b600082198211156100f857634e487b7160e01b81526011600452602481fd5b500190565b6102ee8061010c6000396000f3fe6080604052600436106100555760003560e01c8063724de0841461005a578063786716fe146100645780637df1f1b91461008f5780639d585f7f146100b1578063bcead63e146100c6578063e05c3fb9146100db575b600080fd5b6100626100e3565b005b34801561007057600080fd5b5061007961015c565b604051610086919061028c565b60405180910390f35b34801561009b57600080fd5b506100a4610162565b6040516100869190610235565b3480156100bd57600080fd5b50610079610171565b3480156100d257600080fd5b506100a4610177565b610062610186565b600254341461010d5760405162461bcd60e51b815260040161010490610249565b60405180910390fd5b600080546040516001600160a01b03909116913480156108fc02929091818181858888f19350505050158015610147573d6000803e3d6000fd5b5061015260006101d5565b61015a610227565b565b60035481565b6001546001600160a01b031681565b60025481565b6000546001600160a01b031681565b60035442111561019557600080fd5b600080546040516001600160a01b03909116913480156108fc02929091818181858888f193505050501580156101cf573d6000803e3d6000fd5b5061015a345b80600260008282546101e79190610295565b90915550506040517f4a68b5f533483406096e260e9119417eff3bf8f56e9b3eb399dc5f97e898a2bc9061021c90429061028c565b60405180910390a150565b6000546001600160a01b0316ff5b6001600160a01b0391909116815260200190565b60208082526023908201527f506179206f666620616d6f756e742076616c7565206973206e6f7420636f72726040820152621958dd60ea1b606082015260800190565b90815260200190565b6000828210156102b357634e487b7160e01b81526011600452602481fd5b50039056fea2646970667358221220efacf4ad796a59894bda747e235a4d730468fa5e82548d96924acb0dfc4ded3264736f6c63430008000033a2646970667358221220f1c356e597be8f8987cdcc1e5d086479d8b657609d7d700b9374e8a8c459437a64736f6c63430008000033",
  "linkReferences": {},
  "deployedLinkReferences": {}
}