{
  "_format": "hh-sol-artifact-1",
  "contractName": "Loan",
  "sourceName": "contracts/Loan.sol",
  "abi": [
    {
      "inputs": [
        {
          "internalType": "address",
          "name": "_lender",
          "type": "address"
        },
        {
          "internalType": "address",
          "name": "_borrower",
          "type": "address"
        },
        {
          "internalType": "uint256",
          "name": "_loanAmount",
          "type": "uint256"
        },
        {
          "internalType": "uint256",
          "name": "_loanDuration",
          "type": "uint256"
        }
      ],
      "stateMutability": "nonpayable",
      "type": "constructor"
    },
    {
      "anonymous": false,
      "inputs": [
        {
          "indexed": false,
          "internalType": "uint256",
          "name": "payTime",
          "type": "uint256"
        }
      ],
      "name": "LoanPaid",
      "type": "event"
    },
    {
      "inputs": [],
      "name": "borrower",
      "outputs": [
        {
          "internalType": "address",
          "name": "",
          "type": "address"
        }
      ],
      "stateMutability": "view",
      "type": "function"
    },
    {
      "inputs": [],
      "name": "dueDate",
      "outputs": [
        {
          "internalType": "uint256",
          "name": "",
          "type": "uint256"
        }
      ],
      "stateMutability": "view",
      "type": "function"
    },
    {
      "inputs": [],
      "name": "lender",
      "outputs": [
        {
          "internalType": "address",
          "name": "",
          "type": "address"
        }
      ],
      "stateMutability": "view",
      "type": "function"
    },
    {
      "inputs": [],
      "name": "loanAmount",
      "outputs": [
        {
          "internalType": "uint256",
          "name": "",
          "type": "uint256"
        }
      ],
      "stateMutability": "view",
      "type": "function"
    },
    {
      "inputs": [],
      "name": "partPayment",
      "outputs": [],
      "stateMutability": "payable",
      "type": "function"
    },
    {
      "inputs": [],
      "name": "preClosure",
      "outputs": [],
      "stateMutability": "payable",
      "type": "function"
    }
  ],
  "bytecode": "0x608060405234801561001057600080fd5b506040516103fa3803806103fa83398101604081905261002f91610097565b600080546001600160a01b038087166001600160a01b0319928316179092556001805492861692909116919091179055600282905561006e81426100d9565b600355506100fd92505050565b80516001600160a01b038116811461009257600080fd5b919050565b600080600080608085870312156100ac578384fd5b6100b58561007b565b93506100c36020860161007b565b6040860151606090960151949790965092505050565b600082198211156100f857634e487b7160e01b81526011600452602481fd5b500190565b6102ee8061010c6000396000f3fe6080604052600436106100555760003560e01c8063724de0841461005a578063786716fe146100645780637df1f1b91461008f5780639d585f7f146100b1578063bcead63e146100c6578063e05c3fb9146100db575b600080fd5b6100626100e3565b005b34801561007057600080fd5b5061007961015c565b604051610086919061028c565b60405180910390f35b34801561009b57600080fd5b506100a4610162565b6040516100869190610235565b3480156100bd57600080fd5b50610079610171565b3480156100d257600080fd5b506100a4610177565b610062610186565b600254341461010d5760405162461bcd60e51b815260040161010490610249565b60405180910390fd5b600080546040516001600160a01b03909116913480156108fc02929091818181858888f19350505050158015610147573d6000803e3d6000fd5b5061015260006101d5565b61015a610227565b565b60035481565b6001546001600160a01b031681565b60025481565b6000546001600160a01b031681565b60035442111561019557600080fd5b600080546040516001600160a01b03909116913480156108fc02929091818181858888f193505050501580156101cf573d6000803e3d6000fd5b5061015a345b80600260008282546101e79190610295565b90915550506040517f4a68b5f533483406096e260e9119417eff3bf8f56e9b3eb399dc5f97e898a2bc9061021c90429061028c565b60405180910390a150565b6000546001600160a01b0316ff5b6001600160a01b0391909116815260200190565b60208082526023908201527f506179206f666620616d6f756e742076616c7565206973206e6f7420636f72726040820152621958dd60ea1b606082015260800190565b90815260200190565b6000828210156102b357634e487b7160e01b81526011600452602481fd5b50039056fea2646970667358221220efacf4ad796a59894bda747e235a4d730468fa5e82548d96924acb0dfc4ded3264736f6c63430008000033",
  "linkReferences": {},
  "deployedLinkReferences": {}
}