{
  "contracts/Loan.sol": {
    "LoanRequest": {
      "abi": [
        {
          "inputs": [
            {
              "internalType": "string",
              "name": "_loanPurpose",
              "type": "string"
            },
            {
              "internalType": "uint256",
              "name": "_loanAmount",
              "type": "uint256"
            },
            {
              "internalType": "uint256",
              "name": "_payoffAmount",
              "type": "uint256"
            },
            {
              "internalType": "uint256",
              "name": "_loanDuration",
              "type": "uint256"
            }
          ],
          "stateMutability": "nonpayable",
          "type": "constructor"
        },
        {
          "anonymous": false,
          "inputs": [
            {
              "indexed": false,
              "internalType": "address",
              "name": "loan",
              "type": "address"
            }
          ],
          "name": "LoanRequestAccepted",
          "type": "event"
        },
        {
          "inputs": [],
          "name": "borrower",
          "outputs": [
            {
              "internalType": "address",
              "name": "",
              "type": "address"
            }
          ],
          "stateMutability": "view",
          "type": "function"
        },
        {
          "inputs": [],
          "name": "lendMatic",
          "outputs": [],
          "stateMutability": "payable",
          "type": "function"
        },
        {
          "inputs": [],
          "name": "loan",
          "outputs": [
            {
              "internalType": "contract Loan",
              "name": "",
              "type": "address"
            }
          ],
          "stateMutability": "view",
          "type": "function"
        },
        {
          "inputs": [],
          "name": "loanAmount",
          "outputs": [
            {
              "internalType": "uint256",
              "name": "",
              "type": "uint256"
            }
          ],
          "stateMutability": "view",
          "type": "function"
        },
        {
          "inputs": [],
          "name": "loanDuration",
          "outputs": [
            {
              "internalType": "uint256",
              "name": "",
              "type": "uint256"
            }
          ],
          "stateMutability": "view",
          "type": "function"
        },
        {
          "inputs": [],
          "name": "loanPurpose",
          "outputs": [
            {
              "internalType": "string",
              "name": "",
              "type": "string"
            }
          ],
          "stateMutability": "view",
          "type": "function"
        },
        {
          "inputs": [],
          "name": "payoffAmount",
          "outputs": [
            {
              "internalType": "uint256",
              "name": "",
              "type": "uint256"
            }
          ],
          "stateMutability": "view",
          "type": "function"
        }
      ],
      "evm": {
        "bytecode": {
          "linkReferences": {},
          "object": "60806040523480156200001157600080fd5b50604051620012cd380380620012cd8339818101604052810190620000379190620001e8565b83600190805190602001906200004f929190620000af565b50826002819055508160038190555080600481905550336000806101000a81548173ffffffffffffffffffffffffffffffffffffffff021916908373ffffffffffffffffffffffffffffffffffffffff16021790555050505050620003c2565b828054620000bd9062000314565b90600052602060002090601f016020900481019282620000e157600085556200012d565b82601f10620000fc57805160ff19168380011785556200012d565b828001600101855582156200012d579182015b828111156200012c5782518255916020019190600101906200010f565b5b5090506200013c919062000140565b5090565b5b808211156200015b57600081600090555060010162000141565b5090565b6000620001766200017084620002a1565b6200026d565b9050828152602081018484840111156200018f57600080fd5b6200019c848285620002de565b509392505050565b600082601f830112620001b657600080fd5b8151620001c88482602086016200015f565b91505092915050565b600081519050620001e281620003a8565b92915050565b60008060008060808587031215620001ff57600080fd5b600085015167ffffffffffffffff8111156200021a57600080fd5b6200022887828801620001a4565b94505060206200023b87828801620001d1565b93505060406200024e87828801620001d1565b92505060606200026187828801620001d1565b91505092959194509250565b6000604051905081810181811067ffffffffffffffff8211171562000297576200029662000379565b5b8060405250919050565b600067ffffffffffffffff821115620002bf57620002be62000379565b5b601f19601f8301169050602081019050919050565b6000819050919050565b60005b83811015620002fe578082015181840152602081019050620002e1565b838111156200030e576000848401525b50505050565b600060028204905060018216806200032d57607f821691505b602082108114156200034457620003436200034a565b5b50919050565b7f4e487b7100000000000000000000000000000000000000000000000000000000600052602260045260246000fd5b7f4e487b7100000000000000000000000000000000000000000000000000000000600052604160045260246000fd5b620003b381620002d4565b8114620003bf57600080fd5b50565b610efb80620003d26000396000f3fe6080604052600436106100705760003560e01c80639d585f7f1161004e5780639d585f7f146100d5578063be1abba514610100578063d285b7b41461012b578063f5521bf11461015657610070565b8063021260ab146100755780637df1f1b91461007f57806397c5b4a4146100aa575b600080fd5b61007d610181565b005b34801561008b57600080fd5b506100946102f1565b6040516100a1919061044f565b60405180910390f35b3480156100b657600080fd5b506100bf610315565b6040516100cc91906104ca565b60405180910390f35b3480156100e157600080fd5b506100ea6103a3565b6040516100f791906104ec565b60405180910390f35b34801561010c57600080fd5b506101156103a9565b60405161012291906104ec565b60405180910390f35b34801561013757600080fd5b506101406103af565b60405161014d91906104af565b60405180910390f35b34801561016257600080fd5b5061016b6103d5565b60405161017891906104ec565b60405180910390f35b600254341461018f57600080fd5b3360008054906101000a900473ffffffffffffffffffffffffffffffffffffffff166003546004546040516101c3906103db565b6101d0949392919061046a565b604051809103906000f0801580156101ec573d6000803e3d6000fd5b50600560006101000a81548173ffffffffffffffffffffffffffffffffffffffff021916908373ffffffffffffffffffffffffffffffffffffffff16021790555060008054906101000a900473ffffffffffffffffffffffffffffffffffffffff1673ffffffffffffffffffffffffffffffffffffffff166108fc6002549081150290604051600060405180830381858888f19350505050158015610295573d6000803e3d6000fd5b507f9f677f64e89085ceeb9764ab56960049bf27d6c283ce7a1fd757cac5648bb919600560009054906101000a900473ffffffffffffffffffffffffffffffffffffffff166040516102e7919061044f565b60405180910390a1565b60008054906101000a900473ffffffffffffffffffffffffffffffffffffffff1681565b60018054610322906105b6565b80601f016020809104026020016040519081016040528092919081815260200182805461034e906105b6565b801561039b5780601f106103705761010080835404028352916020019161039b565b820191906000526020600020905b81548152906001019060200180831161037e57829003601f168201915b505050505081565b60025481565b60035481565b600560009054906101000a900473ffffffffffffffffffffffffffffffffffffffff1681565b60045481565b61089d806200062983390190565b6103f281610523565b82525050565b6104018161055f565b82525050565b600061041282610507565b61041c8185610512565b935061042c818560208601610583565b61043581610617565b840191505092915050565b61044981610555565b82525050565b600060208201905061046460008301846103e9565b92915050565b600060808201905061047f60008301876103e9565b61048c60208301866103e9565b6104996040830185610440565b6104a66060830184610440565b95945050505050565b60006020820190506104c460008301846103f8565b92915050565b600060208201905081810360008301526104e48184610407565b905092915050565b60006020820190506105016000830184610440565b92915050565b600081519050919050565b600082825260208201905092915050565b600061052e82610535565b9050919050565b600073ffffffffffffffffffffffffffffffffffffffff82169050919050565b6000819050919050565b600061056a82610571565b9050919050565b600061057c82610535565b9050919050565b60005b838110156105a1578082015181840152602081019050610586565b838111156105b0576000848401525b50505050565b600060028204905060018216806105ce57607f821691505b602082108114156105e2576105e16105e8565b5b50919050565b7f4e487b7100000000000000000000000000000000000000000000000000000000600052602260045260246000fd5b6000601f19601f830116905091905056fe608060405234801561001057600080fd5b5060405161089d38038061089d8339818101604052810190610032919061010f565b836000806101000a81548173ffffffffffffffffffffffffffffffffffffffff021916908373ffffffffffffffffffffffffffffffffffffffff16021790555082600160006101000a81548173ffffffffffffffffffffffffffffffffffffffff021916908373ffffffffffffffffffffffffffffffffffffffff160217905550816002819055508060048190555042600581905550600454426100d69190610172565b60038190555050505050610261565b6000815190506100f481610233565b92915050565b6000815190506101098161024a565b92915050565b6000806000806080858703121561012557600080fd5b6000610133878288016100e5565b9450506020610144878288016100e5565b9350506040610155878288016100fa565b9250506060610166878288016100fa565b91505092959194509250565b600061017d826101fa565b9150610188836101fa565b9250827fffffffffffffffffffffffffffffffffffffffffffffffffffffffffffffffff038211156101bd576101bc610204565b5b828201905092915050565b60006101d3826101da565b9050919050565b600073ffffffffffffffffffffffffffffffffffffffff82169050919050565b6000819050919050565b7f4e487b7100000000000000000000000000000000000000000000000000000000600052601160045260246000fd5b61023c816101c8565b811461024757600080fd5b50565b610253816101fa565b811461025e57600080fd5b50565b61062d806102706000396000f3fe6080604052600436106100915760003560e01c8063b7aa199f11610059578063b7aa199f14610129578063bcead63e14610152578063be1abba51461017d578063c406b877146101a8578063f5521bf1146101d357610091565b806338e2a164146100965780634bb278f3146100b2578063724de084146100c9578063786716fe146100d35780637df1f1b9146100fe575b600080fd5b6100b060048036038101906100ab9190610446565b6101fe565b005b3480156100be57600080fd5b506100c7610282565b005b6100d16102bb565b005b3480156100df57600080fd5b506100e861037b565b6040516100f59190610541565b60405180910390f35b34801561010a57600080fd5b50610113610381565b6040516101209190610506565b60405180910390f35b34801561013557600080fd5b50610150600480360381019061014b9190610446565b6103a7565b005b34801561015e57600080fd5b506101676103fb565b6040516101749190610506565b60405180910390f35b34801561018957600080fd5b5061019261041f565b60405161019f9190610541565b60405180910390f35b3480156101b457600080fd5b506101bd610425565b6040516101ca9190610541565b60405180910390f35b3480156101df57600080fd5b506101e861042b565b6040516101f59190610541565b60405180910390f35b60035442111561020d57600080fd5b60008054906101000a900473ffffffffffffffffffffffffffffffffffffffff1673ffffffffffffffffffffffffffffffffffffffff166108fc349081150290604051600060405180830381858888f19350505050158015610273573d6000803e3d6000fd5b5061027e82826103a7565b5050565b60008054906101000a900473ffffffffffffffffffffffffffffffffffffffff1673ffffffffffffffffffffffffffffffffffffffff16ff5b60025434146102ff576040517f08c379a00000000000000000000000000000000000000000000000000000000081526004016102f690610521565b60405180910390fd5b60008054906101000a900473ffffffffffffffffffffffffffffffffffffffff1673ffffffffffffffffffffffffffffffffffffffff166108fc349081150290604051600060405180830381858888f19350505050158015610365573d6000803e3d6000fd5b506103716000806103a7565b610379610282565b565b60035481565b600160009054906101000a900473ffffffffffffffffffffffffffffffffffffffff1681565b8160028190555080600481905550426005819055507f6166c6346a4d80303d5c3ee0bfaeb8e4f6a3acbd1b56666cb86bf307bfe8edb98282426040516103ef9392919061055c565b60405180910390a15050565b60008054906101000a900473ffffffffffffffffffffffffffffffffffffffff1681565b60025481565b60055481565b60045481565b600081359050610440816105e0565b92915050565b6000806040838503121561045957600080fd5b600061046785828601610431565b925050602061047885828601610431565b9150509250929050565b61048b816105a4565b82525050565b600061049e602383610593565b91507f506179206f666620616d6f756e742076616c7565206973206e6f7420636f727260008301527f65637400000000000000000000000000000000000000000000000000000000006020830152604082019050919050565b610500816105d6565b82525050565b600060208201905061051b6000830184610482565b92915050565b6000602082019050818103600083015261053a81610491565b9050919050565b600060208201905061055660008301846104f7565b92915050565b600060608201905061057160008301866104f7565b61057e60208301856104f7565b61058b60408301846104f7565b949350505050565b600082825260208201905092915050565b60006105af826105b6565b9050919050565b600073ffffffffffffffffffffffffffffffffffffffff82169050919050565b6000819050919050565b6105e9816105d6565b81146105f457600080fd5b5056fea26469706673582212202a77e589daf33e75adfb5be72ad741f9ed3050d9d566ccad66a4a6a249d444e464736f6c63430008000033a26469706673582212202891a1fde9fd5219ac3fc0d4b558d6a1b1b8246fd6bc6bae9dd5c32231d085a764736f6c63430008000033",
          "opcodes": "PUSH1 0x80 PUSH1 0x40 MSTORE CALLVALUE DUP1 ISZERO PUSH3 0x11 JUMPI PUSH1 0x0 DUP1 REVERT JUMPDEST POP PUSH1 0x40 MLOAD PUSH3 0x12CD CODESIZE SUB DUP1 PUSH3 0x12CD DUP4 CODECOPY DUP2 DUP2 ADD PUSH1 0x40 MSTORE DUP2 ADD SWAP1 PUSH3 0x37 SWAP2 SWAP1 PUSH3 0x1E8 JUMP JUMPDEST DUP4 PUSH1 0x1 SWAP1 DUP1 MLOAD SWAP1 PUSH1 0x20 ADD SWAP1 PUSH3 0x4F SWAP3 SWAP2 SWAP1 PUSH3 0xAF JUMP JUMPDEST POP DUP3 PUSH1 0x2 DUP2 SWAP1 SSTORE POP DUP2 PUSH1 0x3 DUP2 SWAP1 SSTORE POP DUP1 PUSH1 0x4 DUP2 SWAP1 SSTORE POP CALLER PUSH1 0x0 DUP1 PUSH2 0x100 EXP DUP2 SLOAD DUP2 PUSH20 0xFFFFFFFFFFFFFFFFFFFFFFFFFFFFFFFFFFFFFFFF MUL NOT AND SWAP1 DUP4 PUSH20 0xFFFFFFFFFFFFFFFFFFFFFFFFFFFFFFFFFFFFFFFF AND MUL OR SWAP1 SSTORE POP POP POP POP POP PUSH3 0x3C2 JUMP JUMPDEST DUP3 DUP1 SLOAD PUSH3 0xBD SWAP1 PUSH3 0x314 JUMP JUMPDEST SWAP1 PUSH1 0x0 MSTORE PUSH1 0x20 PUSH1 0x0 KECCAK256 SWAP1 PUSH1 0x1F ADD PUSH1 0x20 SWAP1 DIV DUP2 ADD SWAP3 DUP3 PUSH3 0xE1 JUMPI PUSH1 0x0 DUP6 SSTORE PUSH3 0x12D JUMP JUMPDEST DUP3 PUSH1 0x1F LT PUSH3 0xFC JUMPI DUP1 MLOAD PUSH1 0xFF NOT AND DUP4 DUP1 ADD OR DUP6 SSTORE PUSH3 0x12D JUMP JUMPDEST DUP3 DUP1 ADD PUSH1 0x1 ADD DUP6 SSTORE DUP3 ISZERO PUSH3 0x12D JUMPI SWAP2 DUP3 ADD JUMPDEST DUP3 DUP2 GT ISZERO PUSH3 0x12C JUMPI DUP3 MLOAD DUP3 SSTORE SWAP2 PUSH1 0x20 ADD SWAP2 SWAP1 PUSH1 0x1 ADD SWAP1 PUSH3 0x10F JUMP JUMPDEST JUMPDEST POP SWAP1 POP PUSH3 0x13C SWAP2 SWAP1 PUSH3 0x140 JUMP JUMPDEST POP SWAP1 JUMP JUMPDEST JUMPDEST DUP1 DUP3 GT ISZERO PUSH3 0x15B JUMPI PUSH1 0x0 DUP2 PUSH1 0x0 SWAP1 SSTORE POP PUSH1 0x1 ADD PUSH3 0x141 JUMP JUMPDEST POP SWAP1 JUMP JUMPDEST PUSH1 0x0 PUSH3 0x176 PUSH3 0x170 DUP5 PUSH3 0x2A1 JUMP JUMPDEST PUSH3 0x26D JUMP JUMPDEST SWAP1 POP DUP3 DUP2 MSTORE PUSH1 0x20 DUP2 ADD DUP5 DUP5 DUP5 ADD GT ISZERO PUSH3 0x18F JUMPI PUSH1 0x0 DUP1 REVERT JUMPDEST PUSH3 0x19C DUP5 DUP3 DUP6 PUSH3 0x2DE JUMP JUMPDEST POP SWAP4 SWAP3 POP POP POP JUMP JUMPDEST PUSH1 0x0 DUP3 PUSH1 0x1F DUP4 ADD SLT PUSH3 0x1B6 JUMPI PUSH1 0x0 DUP1 REVERT JUMPDEST DUP2 MLOAD PUSH3 0x1C8 DUP5 DUP3 PUSH1 0x20 DUP7 ADD PUSH3 0x15F JUMP JUMPDEST SWAP2 POP POP SWAP3 SWAP2 POP POP JUMP JUMPDEST PUSH1 0x0 DUP2 MLOAD SWAP1 POP PUSH3 0x1E2 DUP2 PUSH3 0x3A8 JUMP JUMPDEST SWAP3 SWAP2 POP POP JUMP JUMPDEST PUSH1 0x0 DUP1 PUSH1 0x0 DUP1 PUSH1 0x80 DUP6 DUP8 SUB SLT ISZERO PUSH3 0x1FF JUMPI PUSH1 0x0 DUP1 REVERT JUMPDEST PUSH1 0x0 DUP6 ADD MLOAD PUSH8 0xFFFFFFFFFFFFFFFF DUP2 GT ISZERO PUSH3 0x21A JUMPI PUSH1 0x0 DUP1 REVERT JUMPDEST PUSH3 0x228 DUP8 DUP3 DUP9 ADD PUSH3 0x1A4 JUMP JUMPDEST SWAP5 POP POP PUSH1 0x20 PUSH3 0x23B DUP8 DUP3 DUP9 ADD PUSH3 0x1D1 JUMP JUMPDEST SWAP4 POP POP PUSH1 0x40 PUSH3 0x24E DUP8 DUP3 DUP9 ADD PUSH3 0x1D1 JUMP JUMPDEST SWAP3 POP POP PUSH1 0x60 PUSH3 0x261 DUP8 DUP3 DUP9 ADD PUSH3 0x1D1 JUMP JUMPDEST SWAP2 POP POP SWAP3 SWAP6 SWAP2 SWAP5 POP SWAP3 POP JUMP JUMPDEST PUSH1 0x0 PUSH1 0x40 MLOAD SWAP1 POP DUP2 DUP2 ADD DUP2 DUP2 LT PUSH8 0xFFFFFFFFFFFFFFFF DUP3 GT OR ISZERO PUSH3 0x297 JUMPI PUSH3 0x296 PUSH3 0x379 JUMP JUMPDEST JUMPDEST DUP1 PUSH1 0x40 MSTORE POP SWAP2 SWAP1 POP JUMP JUMPDEST PUSH1 0x0 PUSH8 0xFFFFFFFFFFFFFFFF DUP3 GT ISZERO PUSH3 0x2BF JUMPI PUSH3 0x2BE PUSH3 0x379 JUMP JUMPDEST JUMPDEST PUSH1 0x1F NOT PUSH1 0x1F DUP4 ADD AND SWAP1 POP PUSH1 0x20 DUP2 ADD SWAP1 POP SWAP2 SWAP1 POP JUMP JUMPDEST PUSH1 0x0 DUP2 SWAP1 POP SWAP2 SWAP1 POP JUMP JUMPDEST PUSH1 0x0 JUMPDEST DUP4 DUP2 LT ISZERO PUSH3 0x2FE JUMPI DUP1 DUP3 ADD MLOAD DUP2 DUP5 ADD MSTORE PUSH1 0x20 DUP2 ADD SWAP1 POP PUSH3 0x2E1 JUMP JUMPDEST DUP4 DUP2 GT ISZERO PUSH3 0x30E JUMPI PUSH1 0x0 DUP5 DUP5 ADD MSTORE JUMPDEST POP POP POP POP JUMP JUMPDEST PUSH1 0x0 PUSH1 0x2 DUP3 DIV SWAP1 POP PUSH1 0x1 DUP3 AND DUP1 PUSH3 0x32D JUMPI PUSH1 0x7F DUP3 AND SWAP2 POP JUMPDEST PUSH1 0x20 DUP3 LT DUP2 EQ ISZERO PUSH3 0x344 JUMPI PUSH3 0x343 PUSH3 0x34A JUMP JUMPDEST JUMPDEST POP SWAP2 SWAP1 POP JUMP JUMPDEST PUSH32 0x4E487B7100000000000000000000000000000000000000000000000000000000 PUSH1 0x0 MSTORE PUSH1 0x22 PUSH1 0x4 MSTORE PUSH1 0x24 PUSH1 0x0 REVERT JUMPDEST PUSH32 0x4E487B7100000000000000000000000000000000000000000000000000000000 PUSH1 0x0 MSTORE PUSH1 0x41 PUSH1 0x4 MSTORE PUSH1 0x24 PUSH1 0x0 REVERT JUMPDEST PUSH3 0x3B3 DUP2 PUSH3 0x2D4 JUMP JUMPDEST DUP2 EQ PUSH3 0x3BF JUMPI PUSH1 0x0 DUP1 REVERT JUMPDEST POP JUMP JUMPDEST PUSH2 0xEFB DUP1 PUSH3 0x3D2 PUSH1 0x0 CODECOPY PUSH1 0x0 RETURN INVALID PUSH1 0x80 PUSH1 0x40 MSTORE PUSH1 0x4 CALLDATASIZE LT PUSH2 0x70 JUMPI PUSH1 0x0 CALLDATALOAD PUSH1 0xE0 SHR DUP1 PUSH4 0x9D585F7F GT PUSH2 0x4E JUMPI DUP1 PUSH4 0x9D585F7F EQ PUSH2 0xD5 JUMPI DUP1 PUSH4 0xBE1ABBA5 EQ PUSH2 0x100 JUMPI DUP1 PUSH4 0xD285B7B4 EQ PUSH2 0x12B JUMPI DUP1 PUSH4 0xF5521BF1 EQ PUSH2 0x156 JUMPI PUSH2 0x70 JUMP JUMPDEST DUP1 PUSH4 0x21260AB EQ PUSH2 0x75 JUMPI DUP1 PUSH4 0x7DF1F1B9 EQ PUSH2 0x7F JUMPI DUP1 PUSH4 0x97C5B4A4 EQ PUSH2 0xAA JUMPI JUMPDEST PUSH1 0x0 DUP1 REVERT JUMPDEST PUSH2 0x7D PUSH2 0x181 JUMP JUMPDEST STOP JUMPDEST CALLVALUE DUP1 ISZERO PUSH2 0x8B JUMPI PUSH1 0x0 DUP1 REVERT JUMPDEST POP PUSH2 0x94 PUSH2 0x2F1 JUMP JUMPDEST PUSH1 0x40 MLOAD PUSH2 0xA1 SWAP2 SWAP1 PUSH2 0x44F JUMP JUMPDEST PUSH1 0x40 MLOAD DUP1 SWAP2 SUB SWAP1 RETURN JUMPDEST CALLVALUE DUP1 ISZERO PUSH2 0xB6 JUMPI PUSH1 0x0 DUP1 REVERT JUMPDEST POP PUSH2 0xBF PUSH2 0x315 JUMP JUMPDEST PUSH1 0x40 MLOAD PUSH2 0xCC SWAP2 SWAP1 PUSH2 0x4CA JUMP JUMPDEST PUSH1 0x40 MLOAD DUP1 SWAP2 SUB SWAP1 RETURN JUMPDEST CALLVALUE DUP1 ISZERO PUSH2 0xE1 JUMPI PUSH1 0x0 DUP1 REVERT JUMPDEST POP PUSH2 0xEA PUSH2 0x3A3 JUMP JUMPDEST PUSH1 0x40 MLOAD PUSH2 0xF7 SWAP2 SWAP1 PUSH2 0x4EC JUMP JUMPDEST PUSH1 0x40 MLOAD DUP1 SWAP2 SUB SWAP1 RETURN JUMPDEST CALLVALUE DUP1 ISZERO PUSH2 0x10C JUMPI PUSH1 0x0 DUP1 REVERT JUMPDEST POP PUSH2 0x115 PUSH2 0x3A9 JUMP JUMPDEST PUSH1 0x40 MLOAD PUSH2 0x122 SWAP2 SWAP1 PUSH2 0x4EC JUMP JUMPDEST PUSH1 0x40 MLOAD DUP1 SWAP2 SUB SWAP1 RETURN JUMPDEST CALLVALUE DUP1 ISZERO PUSH2 0x137 JUMPI PUSH1 0x0 DUP1 REVERT JUMPDEST POP PUSH2 0x140 PUSH2 0x3AF JUMP JUMPDEST PUSH1 0x40 MLOAD PUSH2 0x14D SWAP2 SWAP1 PUSH2 0x4AF JUMP JUMPDEST PUSH1 0x40 MLOAD DUP1 SWAP2 SUB SWAP1 RETURN JUMPDEST CALLVALUE DUP1 ISZERO PUSH2 0x162 JUMPI PUSH1 0x0 DUP1 REVERT JUMPDEST POP PUSH2 0x16B PUSH2 0x3D5 JUMP JUMPDEST PUSH1 0x40 MLOAD PUSH2 0x178 SWAP2 SWAP1 PUSH2 0x4EC JUMP JUMPDEST PUSH1 0x40 MLOAD DUP1 SWAP2 SUB SWAP1 RETURN JUMPDEST PUSH1 0x2 SLOAD CALLVALUE EQ PUSH2 0x18F JUMPI PUSH1 0x0 DUP1 REVERT JUMPDEST CALLER PUSH1 0x0 DUP1 SLOAD SWAP1 PUSH2 0x100 EXP SWAP1 DIV PUSH20 0xFFFFFFFFFFFFFFFFFFFFFFFFFFFFFFFFFFFFFFFF AND PUSH1 0x3 SLOAD PUSH1 0x4 SLOAD PUSH1 0x40 MLOAD PUSH2 0x1C3 SWAP1 PUSH2 0x3DB JUMP JUMPDEST PUSH2 0x1D0 SWAP5 SWAP4 SWAP3 SWAP2 SWAP1 PUSH2 0x46A JUMP JUMPDEST PUSH1 0x40 MLOAD DUP1 SWAP2 SUB SWAP1 PUSH1 0x0 CREATE DUP1 ISZERO DUP1 ISZERO PUSH2 0x1EC JUMPI RETURNDATASIZE PUSH1 0x0 DUP1 RETURNDATACOPY RETURNDATASIZE PUSH1 0x0 REVERT JUMPDEST POP PUSH1 0x5 PUSH1 0x0 PUSH2 0x100 EXP DUP2 SLOAD DUP2 PUSH20 0xFFFFFFFFFFFFFFFFFFFFFFFFFFFFFFFFFFFFFFFF MUL NOT AND SWAP1 DUP4 PUSH20 0xFFFFFFFFFFFFFFFFFFFFFFFFFFFFFFFFFFFFFFFF AND MUL OR SWAP1 SSTORE POP PUSH1 0x0 DUP1 SLOAD SWAP1 PUSH2 0x100 EXP SWAP1 DIV PUSH20 0xFFFFFFFFFFFFFFFFFFFFFFFFFFFFFFFFFFFFFFFF AND PUSH20 0xFFFFFFFFFFFFFFFFFFFFFFFFFFFFFFFFFFFFFFFF AND PUSH2 0x8FC PUSH1 0x2 SLOAD SWAP1 DUP2 ISZERO MUL SWAP1 PUSH1 0x40 MLOAD PUSH1 0x0 PUSH1 0x40 MLOAD DUP1 DUP4 SUB DUP2 DUP6 DUP9 DUP9 CALL SWAP4 POP POP POP POP ISZERO DUP1 ISZERO PUSH2 0x295 JUMPI RETURNDATASIZE PUSH1 0x0 DUP1 RETURNDATACOPY RETURNDATASIZE PUSH1 0x0 REVERT JUMPDEST POP PUSH32 0x9F677F64E89085CEEB9764AB56960049BF27D6C283CE7A1FD757CAC5648BB919 PUSH1 0x5 PUSH1 0x0 SWAP1 SLOAD SWAP1 PUSH2 0x100 EXP SWAP1 DIV PUSH20 0xFFFFFFFFFFFFFFFFFFFFFFFFFFFFFFFFFFFFFFFF AND PUSH1 0x40 MLOAD PUSH2 0x2E7 SWAP2 SWAP1 PUSH2 0x44F JUMP JUMPDEST PUSH1 0x40 MLOAD DUP1 SWAP2 SUB SWAP1 LOG1 JUMP JUMPDEST PUSH1 0x0 DUP1 SLOAD SWAP1 PUSH2 0x100 EXP SWAP1 DIV PUSH20 0xFFFFFFFFFFFFFFFFFFFFFFFFFFFFFFFFFFFFFFFF AND DUP2 JUMP JUMPDEST PUSH1 0x1 DUP1 SLOAD PUSH2 0x322 SWAP1 PUSH2 0x5B6 JUMP JUMPDEST DUP1 PUSH1 0x1F ADD PUSH1 0x20 DUP1 SWAP2 DIV MUL PUSH1 0x20 ADD PUSH1 0x40 MLOAD SWAP1 DUP2 ADD PUSH1 0x40 MSTORE DUP1 SWAP3 SWAP2 SWAP1 DUP2 DUP2 MSTORE PUSH1 0x20 ADD DUP3 DUP1 SLOAD PUSH2 0x34E SWAP1 PUSH2 0x5B6 JUMP JUMPDEST DUP1 ISZERO PUSH2 0x39B JUMPI DUP1 PUSH1 0x1F LT PUSH2 0x370 JUMPI PUSH2 0x100 DUP1 DUP4 SLOAD DIV MUL DUP4 MSTORE SWAP2 PUSH1 0x20 ADD SWAP2 PUSH2 0x39B JUMP JUMPDEST DUP3 ADD SWAP2 SWAP1 PUSH1 0x0 MSTORE PUSH1 0x20 PUSH1 0x0 KECCAK256 SWAP1 JUMPDEST DUP2 SLOAD DUP2 MSTORE SWAP1 PUSH1 0x1 ADD SWAP1 PUSH1 0x20 ADD DUP1 DUP4 GT PUSH2 0x37E JUMPI DUP3 SWAP1 SUB PUSH1 0x1F AND DUP3 ADD SWAP2 JUMPDEST POP POP POP POP POP DUP2 JUMP JUMPDEST PUSH1 0x2 SLOAD DUP2 JUMP JUMPDEST PUSH1 0x3 SLOAD DUP2 JUMP JUMPDEST PUSH1 0x5 PUSH1 0x0 SWAP1 SLOAD SWAP1 PUSH2 0x100 EXP SWAP1 DIV PUSH20 0xFFFFFFFFFFFFFFFFFFFFFFFFFFFFFFFFFFFFFFFF AND DUP2 JUMP JUMPDEST PUSH1 0x4 SLOAD DUP2 JUMP JUMPDEST PUSH2 0x89D DUP1 PUSH3 0x629 DUP4 CODECOPY ADD SWAP1 JUMP JUMPDEST PUSH2 0x3F2 DUP2 PUSH2 0x523 JUMP JUMPDEST DUP3 MSTORE POP POP JUMP JUMPDEST PUSH2 0x401 DUP2 PUSH2 0x55F JUMP JUMPDEST DUP3 MSTORE POP POP JUMP JUMPDEST PUSH1 0x0 PUSH2 0x412 DUP3 PUSH2 0x507 JUMP JUMPDEST PUSH2 0x41C DUP2 DUP6 PUSH2 0x512 JUMP JUMPDEST SWAP4 POP PUSH2 0x42C DUP2 DUP6 PUSH1 0x20 DUP7 ADD PUSH2 0x583 JUMP JUMPDEST PUSH2 0x435 DUP2 PUSH2 0x617 JUMP JUMPDEST DUP5 ADD SWAP2 POP POP SWAP3 SWAP2 POP POP JUMP JUMPDEST PUSH2 0x449 DUP2 PUSH2 0x555 JUMP JUMPDEST DUP3 MSTORE POP POP JUMP JUMPDEST PUSH1 0x0 PUSH1 0x20 DUP3 ADD SWAP1 POP PUSH2 0x464 PUSH1 0x0 DUP4 ADD DUP5 PUSH2 0x3E9 JUMP JUMPDEST SWAP3 SWAP2 POP POP JUMP JUMPDEST PUSH1 0x0 PUSH1 0x80 DUP3 ADD SWAP1 POP PUSH2 0x47F PUSH1 0x0 DUP4 ADD DUP8 PUSH2 0x3E9 JUMP JUMPDEST PUSH2 0x48C PUSH1 0x20 DUP4 ADD DUP7 PUSH2 0x3E9 JUMP JUMPDEST PUSH2 0x499 PUSH1 0x40 DUP4 ADD DUP6 PUSH2 0x440 JUMP JUMPDEST PUSH2 0x4A6 PUSH1 0x60 DUP4 ADD DUP5 PUSH2 0x440 JUMP JUMPDEST SWAP6 SWAP5 POP POP POP POP POP JUMP JUMPDEST PUSH1 0x0 PUSH1 0x20 DUP3 ADD SWAP1 POP PUSH2 0x4C4 PUSH1 0x0 DUP4 ADD DUP5 PUSH2 0x3F8 JUMP JUMPDEST SWAP3 SWAP2 POP POP JUMP JUMPDEST PUSH1 0x0 PUSH1 0x20 DUP3 ADD SWAP1 POP DUP2 DUP2 SUB PUSH1 0x0 DUP4 ADD MSTORE PUSH2 0x4E4 DUP2 DUP5 PUSH2 0x407 JUMP JUMPDEST SWAP1 POP SWAP3 SWAP2 POP POP JUMP JUMPDEST PUSH1 0x0 PUSH1 0x20 DUP3 ADD SWAP1 POP PUSH2 0x501 PUSH1 0x0 DUP4 ADD DUP5 PUSH2 0x440 JUMP JUMPDEST SWAP3 SWAP2 POP POP JUMP JUMPDEST PUSH1 0x0 DUP2 MLOAD SWAP1 POP SWAP2 SWAP1 POP JUMP JUMPDEST PUSH1 0x0 DUP3 DUP3 MSTORE PUSH1 0x20 DUP3 ADD SWAP1 POP SWAP3 SWAP2 POP POP JUMP JUMPDEST PUSH1 0x0 PUSH2 0x52E DUP3 PUSH2 0x535 JUMP JUMPDEST SWAP1 POP SWAP2 SWAP1 POP JUMP JUMPDEST PUSH1 0x0 PUSH20 0xFFFFFFFFFFFFFFFFFFFFFFFFFFFFFFFFFFFFFFFF DUP3 AND SWAP1 POP SWAP2 SWAP1 POP JUMP JUMPDEST PUSH1 0x0 DUP2 SWAP1 POP SWAP2 SWAP1 POP JUMP JUMPDEST PUSH1 0x0 PUSH2 0x56A DUP3 PUSH2 0x571 JUMP JUMPDEST SWAP1 POP SWAP2 SWAP1 POP JUMP JUMPDEST PUSH1 0x0 PUSH2 0x57C DUP3 PUSH2 0x535 JUMP JUMPDEST SWAP1 POP SWAP2 SWAP1 POP JUMP JUMPDEST PUSH1 0x0 JUMPDEST DUP4 DUP2 LT ISZERO PUSH2 0x5A1 JUMPI DUP1 DUP3 ADD MLOAD DUP2 DUP5 ADD MSTORE PUSH1 0x20 DUP2 ADD SWAP1 POP PUSH2 0x586 JUMP JUMPDEST DUP4 DUP2 GT ISZERO PUSH2 0x5B0 JUMPI PUSH1 0x0 DUP5 DUP5 ADD MSTORE JUMPDEST POP POP POP POP JUMP JUMPDEST PUSH1 0x0 PUSH1 0x2 DUP3 DIV SWAP1 POP PUSH1 0x1 DUP3 AND DUP1 PUSH2 0x5CE JUMPI PUSH1 0x7F DUP3 AND SWAP2 POP JUMPDEST PUSH1 0x20 DUP3 LT DUP2 EQ ISZERO PUSH2 0x5E2 JUMPI PUSH2 0x5E1 PUSH2 0x5E8 JUMP JUMPDEST JUMPDEST POP SWAP2 SWAP1 POP JUMP JUMPDEST PUSH32 0x4E487B7100000000000000000000000000000000000000000000000000000000 PUSH1 0x0 MSTORE PUSH1 0x22 PUSH1 0x4 MSTORE PUSH1 0x24 PUSH1 0x0 REVERT JUMPDEST PUSH1 0x0 PUSH1 0x1F NOT PUSH1 0x1F DUP4 ADD AND SWAP1 POP SWAP2 SWAP1 POP JUMP INVALID PUSH1 0x80 PUSH1 0x40 MSTORE CALLVALUE DUP1 ISZERO PUSH2 0x10 JUMPI PUSH1 0x0 DUP1 REVERT JUMPDEST POP PUSH1 0x40 MLOAD PUSH2 0x89D CODESIZE SUB DUP1 PUSH2 0x89D DUP4 CODECOPY DUP2 DUP2 ADD PUSH1 0x40 MSTORE DUP2 ADD SWAP1 PUSH2 0x32 SWAP2 SWAP1 PUSH2 0x10F JUMP JUMPDEST DUP4 PUSH1 0x0 DUP1 PUSH2 0x100 EXP DUP2 SLOAD DUP2 PUSH20 0xFFFFFFFFFFFFFFFFFFFFFFFFFFFFFFFFFFFFFFFF MUL NOT AND SWAP1 DUP4 PUSH20 0xFFFFFFFFFFFFFFFFFFFFFFFFFFFFFFFFFFFFFFFF AND MUL OR SWAP1 SSTORE POP DUP3 PUSH1 0x1 PUSH1 0x0 PUSH2 0x100 EXP DUP2 SLOAD DUP2 PUSH20 0xFFFFFFFFFFFFFFFFFFFFFFFFFFFFFFFFFFFFFFFF MUL NOT AND SWAP1 DUP4 PUSH20 0xFFFFFFFFFFFFFFFFFFFFFFFFFFFFFFFFFFFFFFFF AND MUL OR SWAP1 SSTORE POP DUP2 PUSH1 0x2 DUP2 SWAP1 SSTORE POP DUP1 PUSH1 0x4 DUP2 SWAP1 SSTORE POP TIMESTAMP PUSH1 0x5 DUP2 SWAP1 SSTORE POP PUSH1 0x4 SLOAD TIMESTAMP PUSH2 0xD6 SWAP2 SWAP1 PUSH2 0x172 JUMP JUMPDEST PUSH1 0x3 DUP2 SWAP1 SSTORE POP POP POP POP POP PUSH2 0x261 JUMP JUMPDEST PUSH1 0x0 DUP2 MLOAD SWAP1 POP PUSH2 0xF4 DUP2 PUSH2 0x233 JUMP JUMPDEST SWAP3 SWAP2 POP POP JUMP JUMPDEST PUSH1 0x0 DUP2 MLOAD SWAP1 POP PUSH2 0x109 DUP2 PUSH2 0x24A JUMP JUMPDEST SWAP3 SWAP2 POP POP JUMP JUMPDEST PUSH1 0x0 DUP1 PUSH1 0x0 DUP1 PUSH1 0x80 DUP6 DUP8 SUB SLT ISZERO PUSH2 0x125 JUMPI PUSH1 0x0 DUP1 REVERT JUMPDEST PUSH1 0x0 PUSH2 0x133 DUP8 DUP3 DUP9 ADD PUSH2 0xE5 JUMP JUMPDEST SWAP5 POP POP PUSH1 0x20 PUSH2 0x144 DUP8 DUP3 DUP9 ADD PUSH2 0xE5 JUMP JUMPDEST SWAP4 POP POP PUSH1 0x40 PUSH2 0x155 DUP8 DUP3 DUP9 ADD PUSH2 0xFA JUMP JUMPDEST SWAP3 POP POP PUSH1 0x60 PUSH2 0x166 DUP8 DUP3 DUP9 ADD PUSH2 0xFA JUMP JUMPDEST SWAP2 POP POP SWAP3 SWAP6 SWAP2 SWAP5 POP SWAP3 POP JUMP JUMPDEST PUSH1 0x0 PUSH2 0x17D DUP3 PUSH2 0x1FA JUMP JUMPDEST SWAP2 POP PUSH2 0x188 DUP4 PUSH2 0x1FA JUMP JUMPDEST SWAP3 POP DUP3 PUSH32 0xFFFFFFFFFFFFFFFFFFFFFFFFFFFFFFFFFFFFFFFFFFFFFFFFFFFFFFFFFFFFFFFF SUB DUP3 GT ISZERO PUSH2 0x1BD JUMPI PUSH2 0x1BC PUSH2 0x204 JUMP JUMPDEST JUMPDEST DUP3 DUP3 ADD SWAP1 POP SWAP3 SWAP2 POP POP JUMP JUMPDEST PUSH1 0x0 PUSH2 0x1D3 DUP3 PUSH2 0x1DA JUMP JUMPDEST SWAP1 POP SWAP2 SWAP1 POP JUMP JUMPDEST PUSH1 0x0 PUSH20 0xFFFFFFFFFFFFFFFFFFFFFFFFFFFFFFFFFFFFFFFF DUP3 AND SWAP1 POP SWAP2 SWAP1 POP JUMP JUMPDEST PUSH1 0x0 DUP2 SWAP1 POP SWAP2 SWAP1 POP JUMP JUMPDEST PUSH32 0x4E487B7100000000000000000000000000000000000000000000000000000000 PUSH1 0x0 MSTORE PUSH1 0x11 PUSH1 0x4 MSTORE PUSH1 0x24 PUSH1 0x0 REVERT JUMPDEST PUSH2 0x23C DUP2 PUSH2 0x1C8 JUMP JUMPDEST DUP2 EQ PUSH2 0x247 JUMPI PUSH1 0x0 DUP1 REVERT JUMPDEST POP JUMP JUMPDEST PUSH2 0x253 DUP2 PUSH2 0x1FA JUMP JUMPDEST DUP2 EQ PUSH2 0x25E JUMPI PUSH1 0x0 DUP1 REVERT JUMPDEST POP JUMP JUMPDEST PUSH2 0x62D DUP1 PUSH2 0x270 PUSH1 0x0 CODECOPY PUSH1 0x0 RETURN INVALID PUSH1 0x80 PUSH1 0x40 MSTORE PUSH1 0x4 CALLDATASIZE LT PUSH2 0x91 JUMPI PUSH1 0x0 CALLDATALOAD PUSH1 0xE0 SHR DUP1 PUSH4 0xB7AA199F GT PUSH2 0x59 JUMPI DUP1 PUSH4 0xB7AA199F EQ PUSH2 0x129 JUMPI DUP1 PUSH4 0xBCEAD63E EQ PUSH2 0x152 JUMPI DUP1 PUSH4 0xBE1ABBA5 EQ PUSH2 0x17D JUMPI DUP1 PUSH4 0xC406B877 EQ PUSH2 0x1A8 JUMPI DUP1 PUSH4 0xF5521BF1 EQ PUSH2 0x1D3 JUMPI PUSH2 0x91 JUMP JUMPDEST DUP1 PUSH4 0x38E2A164 EQ PUSH2 0x96 JUMPI DUP1 PUSH4 0x4BB278F3 EQ PUSH2 0xB2 JUMPI DUP1 PUSH4 0x724DE084 EQ PUSH2 0xC9 JUMPI DUP1 PUSH4 0x786716FE EQ PUSH2 0xD3 JUMPI DUP1 PUSH4 0x7DF1F1B9 EQ PUSH2 0xFE JUMPI JUMPDEST PUSH1 0x0 DUP1 REVERT JUMPDEST PUSH2 0xB0 PUSH1 0x4 DUP1 CALLDATASIZE SUB DUP2 ADD SWAP1 PUSH2 0xAB SWAP2 SWAP1 PUSH2 0x446 JUMP JUMPDEST PUSH2 0x1FE JUMP JUMPDEST STOP JUMPDEST CALLVALUE DUP1 ISZERO PUSH2 0xBE JUMPI PUSH1 0x0 DUP1 REVERT JUMPDEST POP PUSH2 0xC7 PUSH2 0x282 JUMP JUMPDEST STOP JUMPDEST PUSH2 0xD1 PUSH2 0x2BB JUMP JUMPDEST STOP JUMPDEST CALLVALUE DUP1 ISZERO PUSH2 0xDF JUMPI PUSH1 0x0 DUP1 REVERT JUMPDEST POP PUSH2 0xE8 PUSH2 0x37B JUMP JUMPDEST PUSH1 0x40 MLOAD PUSH2 0xF5 SWAP2 SWAP1 PUSH2 0x541 JUMP JUMPDEST PUSH1 0x40 MLOAD DUP1 SWAP2 SUB SWAP1 RETURN JUMPDEST CALLVALUE DUP1 ISZERO PUSH2 0x10A JUMPI PUSH1 0x0 DUP1 REVERT JUMPDEST POP PUSH2 0x113 PUSH2 0x381 JUMP JUMPDEST PUSH1 0x40 MLOAD PUSH2 0x120 SWAP2 SWAP1 PUSH2 0x506 JUMP JUMPDEST PUSH1 0x40 MLOAD DUP1 SWAP2 SUB SWAP1 RETURN JUMPDEST CALLVALUE DUP1 ISZERO PUSH2 0x135 JUMPI PUSH1 0x0 DUP1 REVERT JUMPDEST POP PUSH2 0x150 PUSH1 0x4 DUP1 CALLDATASIZE SUB DUP2 ADD SWAP1 PUSH2 0x14B SWAP2 SWAP1 PUSH2 0x446 JUMP JUMPDEST PUSH2 0x3A7 JUMP JUMPDEST STOP JUMPDEST CALLVALUE DUP1 ISZERO PUSH2 0x15E JUMPI PUSH1 0x0 DUP1 REVERT JUMPDEST POP PUSH2 0x167 PUSH2 0x3FB JUMP JUMPDEST PUSH1 0x40 MLOAD PUSH2 0x174 SWAP2 SWAP1 PUSH2 0x506 JUMP JUMPDEST PUSH1 0x40 MLOAD DUP1 SWAP2 SUB SWAP1 RETURN JUMPDEST CALLVALUE DUP1 ISZERO PUSH2 0x189 JUMPI PUSH1 0x0 DUP1 REVERT JUMPDEST POP PUSH2 0x192 PUSH2 0x41F JUMP JUMPDEST PUSH1 0x40 MLOAD PUSH2 0x19F SWAP2 SWAP1 PUSH2 0x541 JUMP JUMPDEST PUSH1 0x40 MLOAD DUP1 SWAP2 SUB SWAP1 RETURN JUMPDEST CALLVALUE DUP1 ISZERO PUSH2 0x1B4 JUMPI PUSH1 0x0 DUP1 REVERT JUMPDEST POP PUSH2 0x1BD PUSH2 0x425 JUMP JUMPDEST PUSH1 0x40 MLOAD PUSH2 0x1CA SWAP2 SWAP1 PUSH2 0x541 JUMP JUMPDEST PUSH1 0x40 MLOAD DUP1 SWAP2 SUB SWAP1 RETURN JUMPDEST CALLVALUE DUP1 ISZERO PUSH2 0x1DF JUMPI PUSH1 0x0 DUP1 REVERT JUMPDEST POP PUSH2 0x1E8 PUSH2 0x42B JUMP JUMPDEST PUSH1 0x40 MLOAD PUSH2 0x1F5 SWAP2 SWAP1 PUSH2 0x541 JUMP JUMPDEST PUSH1 0x40 MLOAD DUP1 SWAP2 SUB SWAP1 RETURN JUMPDEST PUSH1 0x3 SLOAD TIMESTAMP GT ISZERO PUSH2 0x20D JUMPI PUSH1 0x0 DUP1 REVERT JUMPDEST PUSH1 0x0 DUP1 SLOAD SWAP1 PUSH2 0x100 EXP SWAP1 DIV PUSH20 0xFFFFFFFFFFFFFFFFFFFFFFFFFFFFFFFFFFFFFFFF AND PUSH20 0xFFFFFFFFFFFFFFFFFFFFFFFFFFFFFFFFFFFFFFFF AND PUSH2 0x8FC CALLVALUE SWAP1 DUP2 ISZERO MUL SWAP1 PUSH1 0x40 MLOAD PUSH1 0x0 PUSH1 0x40 MLOAD DUP1 DUP4 SUB DUP2 DUP6 DUP9 DUP9 CALL SWAP4 POP POP POP POP ISZERO DUP1 ISZERO PUSH2 0x273 JUMPI RETURNDATASIZE PUSH1 0x0 DUP1 RETURNDATACOPY RETURNDATASIZE PUSH1 0x0 REVERT JUMPDEST POP PUSH2 0x27E DUP3 DUP3 PUSH2 0x3A7 JUMP JUMPDEST POP POP JUMP JUMPDEST PUSH1 0x0 DUP1 SLOAD SWAP1 PUSH2 0x100 EXP SWAP1 DIV PUSH20 0xFFFFFFFFFFFFFFFFFFFFFFFFFFFFFFFFFFFFFFFF AND PUSH20 0xFFFFFFFFFFFFFFFFFFFFFFFFFFFFFFFFFFFFFFFF AND SELFDESTRUCT JUMPDEST PUSH1 0x2 SLOAD CALLVALUE EQ PUSH2 0x2FF JUMPI PUSH1 0x40 MLOAD PUSH32 0x8C379A000000000000000000000000000000000000000000000000000000000 DUP2 MSTORE PUSH1 0x4 ADD PUSH2 0x2F6 SWAP1 PUSH2 0x521 JUMP JUMPDEST PUSH1 0x40 MLOAD DUP1 SWAP2 SUB SWAP1 REVERT JUMPDEST PUSH1 0x0 DUP1 SLOAD SWAP1 PUSH2 0x100 EXP SWAP1 DIV PUSH20 0xFFFFFFFFFFFFFFFFFFFFFFFFFFFFFFFFFFFFFFFF AND PUSH20 0xFFFFFFFFFFFFFFFFFFFFFFFFFFFFFFFFFFFFFFFF AND PUSH2 0x8FC CALLVALUE SWAP1 DUP2 ISZERO MUL SWAP1 PUSH1 0x40 MLOAD PUSH1 0x0 PUSH1 0x40 MLOAD DUP1 DUP4 SUB DUP2 DUP6 DUP9 DUP9 CALL SWAP4 POP POP POP POP ISZERO DUP1 ISZERO PUSH2 0x365 JUMPI RETURNDATASIZE PUSH1 0x0 DUP1 RETURNDATACOPY RETURNDATASIZE PUSH1 0x0 REVERT JUMPDEST POP PUSH2 0x371 PUSH1 0x0 DUP1 PUSH2 0x3A7 JUMP JUMPDEST PUSH2 0x379 PUSH2 0x282 JUMP JUMPDEST JUMP JUMPDEST PUSH1 0x3 SLOAD DUP2 JUMP JUMPDEST PUSH1 0x1 PUSH1 0x0 SWAP1 SLOAD SWAP1 PUSH2 0x100 EXP SWAP1 DIV PUSH20 0xFFFFFFFFFFFFFFFFFFFFFFFFFFFFFFFFFFFFFFFF AND DUP2 JUMP JUMPDEST DUP2 PUSH1 0x2 DUP2 SWAP1 SSTORE POP DUP1 PUSH1 0x4 DUP2 SWAP1 SSTORE POP TIMESTAMP PUSH1 0x5 DUP2 SWAP1 SSTORE POP PUSH32 0x6166C6346A4D80303D5C3EE0BFAEB8E4F6A3ACBD1B56666CB86BF307BFE8EDB9 DUP3 DUP3 TIMESTAMP PUSH1 0x40 MLOAD PUSH2 0x3EF SWAP4 SWAP3 SWAP2 SWAP1 PUSH2 0x55C JUMP JUMPDEST PUSH1 0x40 MLOAD DUP1 SWAP2 SUB SWAP1 LOG1 POP POP JUMP JUMPDEST PUSH1 0x0 DUP1 SLOAD SWAP1 PUSH2 0x100 EXP SWAP1 DIV PUSH20 0xFFFFFFFFFFFFFFFFFFFFFFFFFFFFFFFFFFFFFFFF AND DUP2 JUMP JUMPDEST PUSH1 0x2 SLOAD DUP2 JUMP JUMPDEST PUSH1 0x5 SLOAD DUP2 JUMP JUMPDEST PUSH1 0x4 SLOAD DUP2 JUMP JUMPDEST PUSH1 0x0 DUP2 CALLDATALOAD SWAP1 POP PUSH2 0x440 DUP2 PUSH2 0x5E0 JUMP JUMPDEST SWAP3 SWAP2 POP POP JUMP JUMPDEST PUSH1 0x0 DUP1 PUSH1 0x40 DUP4 DUP6 SUB SLT ISZERO PUSH2 0x459 JUMPI PUSH1 0x0 DUP1 REVERT JUMPDEST PUSH1 0x0 PUSH2 0x467 DUP6 DUP3 DUP7 ADD PUSH2 0x431 JUMP JUMPDEST SWAP3 POP POP PUSH1 0x20 PUSH2 0x478 DUP6 DUP3 DUP7 ADD PUSH2 0x431 JUMP JUMPDEST SWAP2 POP POP SWAP3 POP SWAP3 SWAP1 POP JUMP JUMPDEST PUSH2 0x48B DUP2 PUSH2 0x5A4 JUMP JUMPDEST DUP3 MSTORE POP POP JUMP JUMPDEST PUSH1 0x0 PUSH2 0x49E PUSH1 0x23 DUP4 PUSH2 0x593 JUMP JUMPDEST SWAP2 POP PUSH32 0x506179206F666620616D6F756E742076616C7565206973206E6F7420636F7272 PUSH1 0x0 DUP4 ADD MSTORE PUSH32 0x6563740000000000000000000000000000000000000000000000000000000000 PUSH1 0x20 DUP4 ADD MSTORE PUSH1 0x40 DUP3 ADD SWAP1 POP SWAP2 SWAP1 POP JUMP JUMPDEST PUSH2 0x500 DUP2 PUSH2 0x5D6 JUMP JUMPDEST DUP3 MSTORE POP POP JUMP JUMPDEST PUSH1 0x0 PUSH1 0x20 DUP3 ADD SWAP1 POP PUSH2 0x51B PUSH1 0x0 DUP4 ADD DUP5 PUSH2 0x482 JUMP JUMPDEST SWAP3 SWAP2 POP POP JUMP JUMPDEST PUSH1 0x0 PUSH1 0x20 DUP3 ADD SWAP1 POP DUP2 DUP2 SUB PUSH1 0x0 DUP4 ADD MSTORE PUSH2 0x53A DUP2 PUSH2 0x491 JUMP JUMPDEST SWAP1 POP SWAP2 SWAP1 POP JUMP JUMPDEST PUSH1 0x0 PUSH1 0x20 DUP3 ADD SWAP1 POP PUSH2 0x556 PUSH1 0x0 DUP4 ADD DUP5 PUSH2 0x4F7 JUMP JUMPDEST SWAP3 SWAP2 POP POP JUMP JUMPDEST PUSH1 0x0 PUSH1 0x60 DUP3 ADD SWAP1 POP PUSH2 0x571 PUSH1 0x0 DUP4 ADD DUP7 PUSH2 0x4F7 JUMP JUMPDEST PUSH2 0x57E PUSH1 0x20 DUP4 ADD DUP6 PUSH2 0x4F7 JUMP JUMPDEST PUSH2 0x58B PUSH1 0x40 DUP4 ADD DUP5 PUSH2 0x4F7 JUMP JUMPDEST SWAP5 SWAP4 POP POP POP POP JUMP JUMPDEST PUSH1 0x0 DUP3 DUP3 MSTORE PUSH1 0x20 DUP3 ADD SWAP1 POP SWAP3 SWAP2 POP POP JUMP JUMPDEST PUSH1 0x0 PUSH2 0x5AF DUP3 PUSH2 0x5B6 JUMP JUMPDEST SWAP1 POP SWAP2 SWAP1 POP JUMP JUMPDEST PUSH1 0x0 PUSH20 0xFFFFFFFFFFFFFFFFFFFFFFFFFFFFFFFFFFFFFFFF DUP3 AND SWAP1 POP SWAP2 SWAP1 POP JUMP JUMPDEST PUSH1 0x0 DUP2 SWAP1 POP SWAP2 SWAP1 POP JUMP JUMPDEST PUSH2 0x5E9 DUP2 PUSH2 0x5D6 JUMP JUMPDEST DUP2 EQ PUSH2 0x5F4 JUMPI PUSH1 0x0 DUP1 REVERT JUMPDEST POP JUMP INVALID LOG2 PUSH5 0x6970667358 0x22 SLT KECCAK256 0x2A PUSH24 0xE589DAF33E75ADFB5BE72AD741F9ED3050D9D566CCAD66A4 0xA6 LOG2 0x49 0xD4 DIFFICULTY 0xE4 PUSH5 0x736F6C6343 STOP ADDMOD STOP STOP CALLER LOG2 PUSH5 0x6970667358 0x22 SLT KECCAK256 0x28 SWAP2 LOG1 REVERT 0xE9 REVERT MSTORE NOT 0xAC EXTCODEHASH 0xC0 0xD4 0xB5 PC 0xD6 LOG1 0xB1 0xB8 0x24 PUSH16 0xD6BC6BAE9DD5C32231D085A764736F6C PUSH4 0x43000800 STOP CALLER "
        },
        "methodIdentifiers": {
          "borrower()": "7df1f1b9",
          "lendMatic()": "021260ab",
          "loan()": "d285b7b4",
          "loanAmount()": "9d585f7f",
          "loanDuration()": "f5521bf1",
          "loanPurpose()": "97c5b4a4",
          "payoffAmount()": "be1abba5"
        }
      }
    }
  }
}